:03000000020800F3
:0C080000787FE4F6D8FD758120020847DF
:0408EC00C101C10085
:030003000208F1FF
:0308F100D20132FF
:030013000208F4EC
:0308F400D20032FD
:1008CC00E4FDFCC3ED9FEC9E5015E4FBFA0BBB0062
:0F08DC00010AEB64784A70F50DBD00010C80E451
:0108EB0022EA
:10088C00D288D28AD2A8D2AAD2AF7590FFE4F5A0B2
:10089C0020B206D2A3D2A48004C2A3C2A420B30463
:1008AC00D2A08002C2A0309007209104D2A1800275
:1008BC00C2A130910730B204D2A280D4C2A280D09F
:10080C0002088CE493A3F8E493A34003F68001F26E
:10081C0008DFF48029E493A3F85407240CC8C333ED
:10082C00C4540F4420C8834004F456800146F6DFBC
:10083C00E4800B01020408102040809008ECE47E58
:10084C00019360BCA3FF543F30E509541FFEE493B1
:10085C00A360010ECF54C025E060A840B8E493A378
:10086C00FAE493A3F8E493A3C8C582C8CAC583CAA3
:10087C00F0A3C8C582C8CAC583CADFE9DEE780BE5B
:0108F0000007
:00000001FF
